:020000040800F2
:10000000E0E70120816300089D0100089F010008CE
:10001000A1010008A3010008A501000800000000DC
:10002000000000000000000000000000A701000820
:10003000A901000800000000AB010008AD010008A4
:100040009B6300089B6300089B630008E30D0008A6
:100050009B6300089B6300089B6300089B63000888
:100060009B6300089B6300089B6300089B63000878
:100070009B6300089B6300089B6300089B63000868
:100080009B6300089B6300089B6300089B63000858
:100090009B6300089B6300089B6300089B63000848
:1000A0009B6300089B6300089B6300089B63000838
:1000B0009B6300086B1400089B6300089B630008A7
:1000C0009B6300089B6300089B6300089B63000818
:1000D0009B630008999400089B6300089B630008D9
:1000E0009B630008C10D00089B6300089B63000828
:1000F0009B6300089B6300089B6300089B630008E8
:100100009B6300089B6300089B6300089B630008D7
:100110009B6300089B6300089B6300089B630008C7
:100120009B6300089B6300089B6300089B630008B7
:100130009B6300089B6300089B6300089B630008A7
:100140009B6300089B6300089B6300089B63000897
:100150009B6300089B6300089B6300089B63000887
:100160009B6300089B6300089B6300089B63000877
:100170009B6300089B6300089B6300089B63000867
:100180009B6300089B630008DFF80CD009F048FA75
:1001900000480047BD100008E0E701207047FEE777
:1001A000FEE7FEE7FEE770477047704770470000C4
:1001B0000CB50022544900920192086840F4803046
:1001C00008604FF4A043086800F4003001900098E4
:1001D000401C0090019810B900989842F3D108682B
:1001E000800334D50120019047484030026842F036
:1001F000805202604548026842F440420260424830
:10020000083002680260026842F40042026002683C
:1002100042F4A0520260031F3D4A1A600A6842F08D
:1002200080720A600A689201FCD53A4940F2057270
:100230000A60016821F003010160016841F00201D8
:1002400001600168C1F381010229FAD10CBD01925C
:100250000CBD314810B5016841F4700101602A48B5
:10026000016841F001010160274A00210832116054
:1002700002682A4B1A400260031D294A1A6002686C
:1002800022F48022026020480C300160FFF790FFCA
:1002900021494FF000608039086010BD70B51A4DDB
:1002A000083528681F4B204910F00C0004D01F4E61
:1002B000042803D0082803D00B601BE00E6019E06F
:1002C000114A121D1068C0F38054106800F03F00FE
:1002D00014B1B6FBF0F001E0B3FBF0F01368126864
:1002E000C3F388135843C2F30142521C5200B0FBBF
:1002F000F2F0086028680C4AC0F30310121D105C6D
:100300000A68C2400A6070BD0038024000700040B8
:1003100019544007003C024088ED00E0FFFFF6FE64
:10032000103000240024F4000400002040787D01F7
:1003300000B5AFB001214FF0606006F0FAFA07F0A7
:100340009DFA07F0BDFE07F0C1FE0128FBD068460C
:1003500007F0A0FA0120009000204FF40071CDE9D1
:100360000A10890513900E91490D0991C903079050
:100370001190CDE92001149015900A112590269036
:1003800023920420CDE9280180032A9080012B903C
:1003900040122C9040002E900121684607F00CFB83
:1003A0009349C0B208602FB000BD7CB50121C520C3
:1003B00006F0BFFA0121880306F0E3FA012006F0F7
:1003C000ACFB03258DF8055002208DF804000024B5
:1003D0008620884E8DF8064000908DF807406946CB
:1003E000304606F0A3F80B220121304606F012F940
:1003F0000B220221304606F00DF90B220721304670
:1004000006F008F932207C4E00906946304606F02E
:100410008DF80B220121304606F0FCF80B22042156
:10042000304606F0F7F80B220521304606F0F2F8C8
:100430004FF4D040714E00906946304606F076F891
:100440000B221146304606F0E5F80B220D2130460E
:1004500006F0E0F80B220E21304606F0DBF8012111
:10046000022006F066FA01208DF804008DF8055090
:100470008DF806408DF80740614C361500966946A8
:10048000204606F053F83146204606F0B6F80A201A
:1004900000F005FD3146204606F0ADF8642000F07E
:1004A000FEFC7CBD10B5FFF780FFFFF741FF04465F
:1004B0001121012007F058FA400704D54C48016883
:1004C00041F0100101600CB1002010BD012010BDF1
:1004D00070B547490020091D07F0E7FB052249498F
:1004E000494807F046FD05224849494807F0ECFC19
:1004F000454D00244FF4400605EB4410314607F00B
:1005000075FD641C052CF7DBBDE8704007F08CBB63
:1005100030B5404C21680A68C2F30D433E4A126868
:1005200095681B1F012D02D91268926800E08A6845
:10053000CD6825600360C0E9012130BD374A1168EC
:100540000B68002B01DA00207047C0F30C004860F4
:10055000086840F040500860086840F000400860BB
:100560002F4843695B0703D504234361002343609D
:10057000C86810600120704728480068806870478C
:100580003EB50025684607F0E9FB9DE8130082B2FE
:1005900024480280244808F0E4FF1F490868826864
:1005A000012A00D904684FF0004002E02060E468AE
:1005B0006D1C0A689268AA42F8D808680022826016
:1005C00017484169090602D58021416182603EBD1C
:1005D00010B50446152107F0C7F920F44072152123
:1005E000204607F09BF9002800D0012010BD000034
:1005F00018000020000002400008024000180240DD
:100600000004024044890120E06A0120806B01203F
:10061000406A0120D0000020D4000020CC0000203F
:10062000009002402C000020B0010020F74A10800A
:10063000F7480180704710B5F64C002303F1100015
:10064000E15CC0B2FFF7F2FF5B1CDBB2062BF5D317
:10065000002303F11600C0B2FF21FFF7E7FF5B1C88
:10066000DBB2082BF5D310BDE8490880E8480088C4
:10067000C0B270470B4610B540F040010C20FFF7A8
:10068000D5FF190A0E20FFF7D1FFD9B20D20FFF7D1
:10069000CDFF0A210B20FFF7C9FF0B20FFF7E4FF76
:1006A000C007FAD1322000F0FAFB0021BDE810406B
:1006B0000B20BBE770B5D84D4FF400742146284697
:1006C00005F09BFF142000F0EAFB2146284605F0C8
:1006D00092FF642000F0E3FB01211E20FFF7A6FF3C
:1006E00000211F20FFF7A2FF142000F0D8FB0321F8
:1006F0000020FFF79BFF012000F0D1FB0020FFF757
:10070000B3FFC007F7D100210846FFF78FFF032191
:100710000020FFF78BFF012000F0C1FB0020FFF756
:10072000A3FFC007F7D100210846FFF77FFF802114
:10073000FF20FFF77BFF80212D20FFF777FF2C2183
:100740000120FFF773FF00210220FFF76FFF0F2149
:10075000FE20FFF76BFF33210520FFF767FF8021A5
:10076000FF20FFF763FFAB490020091F087070BD31
:1007700010B5FFF79FFF01211F20FFF757FF4FF430
:1007800000410020FFF776FF40F2E1110420FFF75F
:1007900071FF4FF480510020FFF76CFF4FF4FA64B3
:1007A000204600F07CFB00211F20FFF73FFF204682
:1007B00000F075FBBDE810403DE700B597B008209C
:1007C0000F9000200A21CDE910011490042115900A
:1007D000CDE9001012901021CDE902011390049090
:1007E0000590069009020790CDE908010A900B9048
:1007F0000C900FA80D900E90684607F0B8FD0121EF
:10080000042007F02DFE17B000BD2DE9FC410121A9
:10081000084606F0A2F801215D2006F08AF80121C1
:10082000880306F0AEF87D4E0C220021304605F01C
:10083000F1FE0C220121304605F0ECFE0C220421D1
:10084000304605F0E7FE0C220521304605F0E2FEB9
:100850000C220821304605F0DDFE0C22092130462D
:1008600005F0D8FE0C220A21304605F0D3FE0C22FA
:100870000E21304605F0CEFE0C220F21304605F049
:10088000C9FE4CF23370009002208DF8040003255D
:100890008DF8055000248DF806408DF80740694614
:1008A000304605F043FE5E4F0C220421384605F029
:1008B000B1FE0C220521384605F0ACFE0C220721C2
:1008C000384605F0A7FE0C220821384605F0A2FEA6
:1008D0000C220921384605F09DFE0C220A213846DB
:1008E00005F098FE0C220B21384605F093FE0C22F1
:1008F0001146384605F08EFE0C220D21384605F0D3
:1009000089FE0C220E21384605F084FE0C220F21B0
:10091000384605F07FFE4FF6B070009069463846C5
:1009200005F004FE0C220D21304605F073FE4FF455
:10093000005000906946304605F0F8FD394E0C2213
:100940000A21304605F066FE3115009169463046B1
:1009500005F0ECFD01208DF804008DF805508DF8B0
:1009600006408DF807402C4C7615009669462046C7
:1009700005F0DCFD3146204605F03FFE012000F089
:100980008EFA3146204605F036FEC82000F087FA80
:10099000BDE8FC8110B5FFF738FFFFF70EFF1D49DA
:1009A0000120091F4870BDE81040E1E610B50321A1
:1009B0000020FFF73BFE0A2000F06AFA0321002026
:1009C000FFF734FE0A2000F063FA8021FF20FFF7D2
:1009D0002DFE80212D20FFF729FE2C210120FFF77D
:1009E00025FE00210220FFF721FE0F21FE20FFF748
:1009F0001DFE33210520FFF719FE8021FF20FFF7A0
:100A000015FE04490020091F087010BD0000406851
:100A1000000048682600002000080240000C024048
:100A2000001002400018024070B5734BADF5486DE0
:100A300000250022F020FFF717FEF420FFF714FE38
:100A40000446F520FFF710FE04EB002084B2F020EE
:100A5000FFF70AFE012807D000285ED0FFF7A6FFA7
:100A600000200DF5486D70BD6449F220088019889A
:100A70001888B0F5C06F00D90122490403D5B0F53C
:100A8000FA7F00D901222118091D8CB2C10701D0BB
:100A9000641CA4B2B4F5804F02D3A4F55054A4B2A0
:100AA00052B1210AF520FFF7C1FDE1B2F420FFF7B2
:100AB000BDFD002DBDD0D3E7411C4D0800216A4685
:100AC00004E01E8822F81160491C89B2A942F8D3BB
:100AD000001F4B4D82B269466A804A4808F041FDCA
:100AE000F420FFF7C1FD0246F520FFF7BDFD02EB44
:100AF0000020A04207D0210AF520FFF797FDE1B2C0
:100B0000F420FFF793FD210AF520FFF78FFDE1B2F6
:100B1000F420FFF78BFD6888A3E73F21FE20FFF755
:100B200085FD9DE770B50B4604468021FF20FFF749
:100B30007DFD3249F8200880581C400800222E49CB
:100B400004E034F812500D80521C92B28242F8D365
:100B5000190AFD20FFF76AFDD9B2FC20FFF766FDF8
:100B600001210220FFF762FD00F06FF9044604E066
:100B700000F06BF9001B642804D20220FFF774FD1B
:100B8000C007F5D12C210120FFF750FDBDE87040D2
:100B90008021FF204AE510B5184C20888021C3B27F
:100BA000FF20FFF743FDFE20FFF75EFD8121FF20C0
:100BB000FFF73CFD238028E710B5114C607828B979
:100BC000FFF723FEFFF7F9FD012060702820FFF7F3
:100BD0004BFD02462920FFF747FD03462A20FFF779
:100BE00043FD04462B20FFF73FFD190641EA024171
:100BF00041EA0020204308E7000048680000406800
:100C000022000020E800002008B58DF800008DF8D3
:100C100001108DF802208DF803306946002007F09E
:100C2000B6FE08BD08B58DF802208DF801108DF8CC
:100C300000308DF803006946002007F022FF08BD50
:100C40003EB5012141F6FF74080705F090FE012032
:100C500008F040FB002008F001FA45F25005A842D8
:100C60002ED0012005F05CFD04E0641CA4B20A2033
:100C700000F015F9412005F01BFD0028F5D00CB35C
:100C80004FF4807005F003FE012005F015FE7F2073
:100C90000190FF20029000200090684607F013FEAC
:100CA000002338223B211720FFF7AEFF0522062341
:100CB00011460E20FFF7B6FF2946002008F0C6F9BE
:100CC00000203EBD01203EBD2DE9F0430D4681468A
:100CD0004FF4807687B01F4690460021304607F0DB
:100CE000D9FF65F3070468F30F2467F31744002561
:100CF00065F31F648DF80C90B0050094CDE90150A8
:100D00006A463146284607F02BFF3701384608F07F
:100D10003EFA7402204608F0C8FA0121384608F06D
:100D2000EAF90121304607F0B5FF8DF8145008208C
:100D300004948DF8150001248DF8164004A808F0DD
:100D40005BFA354829210170022141708170C4701D
:100D500005F02DFB07B0BDE8F0837CB504460D46D9
:100D6000002007F0FEFF204607F0DAFF284607F0D4
:100D7000E8FF4FF48045284608F009FA2C02204687
:100D800008F093FA0121284608F0B5F9012007F090
:100D9000E8FF00208DF80400082000948DF805007D
:100DA00001248DF80640684608F026FA1A48032107
:100DB0000170022141708170C47005F0F8FA7CBDA9
:100DC00010B54FF48074204608F0B3F9012802D121
:100DD000204608F0B9F9BDE810404FF4003008F0A3
:100DE00064BA10B54FF48064204608F0A2F90128D7
:100DF00009D1204608F0A8F90849D1F8A80240B165
:100E00000020C1F8A802BDE810404FF4800008F0AF
:100E10004CBA0120F5E700002E000020008042427D
:100E2000274828490068B0FBF1F0401EB0F1807FF0
:100E30000AD24FF0E0214861234AF02082F8140DD5
:100E40000020886107200861704710B54FF080408E
:100E500005F04EFF1D490860086810BD3EB50D46FF
:100E600004460121084605F082FD00200194ADF8FA
:100E70000050ADF80200ADF808004FF0804469461C
:100E8000204605F0EFFE0121204605F063FF3EBD40
:100E900002E02D21491EFDD2401EFAD270474BF6CA
:100EA000E14302E01946491EFDD2401EFAD27047C6
:100EB00001B5009801E0401E00900028FBD108BD5C
:100EC0000400002040420F000FE000E0000000207E
:100ED00073480069800601D50120704700207047E3
:100EE0006F480069400601D5012070470020704717
:100EF0006C480069000501D501207047002070474B
:100F000068494FF4807208B10A8370474A8370477A
:100F1000401E654910F0FF0004D0012801D1802057
:100F2000088070474020FBE72DE9FC470121402065
:100F300005F0FFFC0120FFF7EBFF0220FFF7E8FFC1
:100F400001258DF804500024DFF85C918DF80640EF
:100F50008DF8074003274026A9F11A098DF805707E
:100F600069464846009605F0E1FA802000906946FF
:100F7000484605F0DBFA4FF480784146484605F0D4
:100F80003AFB69464846CDF8008005F0CFFA0121CA
:100F9000102005F0CEFCDFF808814021404605F026
:100FA0002AFB69464046009605F0C0FA8DF80440D9
:100FB0008DF8064030208DF80740022600908DF80D
:100FC00005606946404605F0B1FA0121022005F0AE
:100FD000B0FC8DF804404FF408408DF806400090B6
:100FE0008DF807408DF805606946304805F09EFA97
:100FF0000121202005F09DFC8DF804404FF4707015
:101000008DF8064000908DF807408DF80560694620
:10101000274805F08BFA0121042005F08AFC8DF8A1
:1010200004508DF80640234C8DF807508DF805705C
:1010300069462046009505F079FA0121204605F021
:10104000DAFABDE8FC876FE7401E1B4910F0FF008D
:1010500004D0012801D18020088070474020FBE7A0
:101060001549091F012806D0022803D1086880F01D
:10107000800008607047086880F04000F9E70E497A
:10108000091F012801D0022800D1086800207047FC
:1010900008481430016881F00101016070470000C8
:1010A00000100240000002401A18024000040240F2
:1010B00000140240000802401818024086B0FFF7F2
:1010C000C2FF4FF4A06005F06DF9FFF7E7F84FF4A9
:1010D000E13008F08FF9F94805F096FB5321F84804
:1010E000FFF7BCFE0121022005F041FC5320ADF8C2
:1010F00000000024F920F34D0190ADF80840ADF850
:1011000002408DF80A406946284605F0ABFD4FF4D1
:10111000E06005F047F91D208DF80C008DF80D40BA
:1011200003208DF80E004FF001098DF80F9003A8F1
:1011300005F03DF90121284606F03DF9012211464E
:10114000284606F018F90121284605F003FEDEA026
:1011500008F098FA4CF25037DFF88CB3A046DFF86D
:101160008CA3FFF729FD5446CAF80C00FFF712FCC8
:10117000FFF798F984F8028002250121084606F05D
:10118000F3FB400706D50120FFF76EFA400601D5B4
:10119000A5700FE00121084606F0E6FB400707D5E1
:1011A0000120FFF761FA400602D484F8029001E0C2
:1011B00084F80280CEA008F065FA6420FFF76FFE85
:1011C0000220FFF74DFFA0780028D6D060780128D4
:1011D00022D00220FFF79CFEFFF77AF903F047FECA
:1011E000A246A178CDA008F04DFA4FF47A70FFF72F
:1011F00056FE0120FFF728FF002001F057FF0028CE
:1012000076DDCB4CCBA0216808F03CFA20680128A1
:1012100016DB01255E4610E084F80180A1E705EBAE
:10122000C50000EB851006EB80012A46CAA001F537
:10123000867108F027FA6D1CADB220688542EEDD9C
:10124000CC4802F076FC04F0A2FD0121CA4BFA2240
:10125000084604F083FDC9A008F014FAD04A04211E
:10126000002003F016FE5D46BBF80010CDA008F08C
:1012700009FAB5F82411D1A008F004FA3A4604217D
:10128000002003F006FE3A460421012003F001FE8F
:1012900028880428F2D1B5F824010428EED1298841
:1012A000C0A008F0EFF9B5F82411C4A008F0EAF9DD
:1012B0000126AB4654E006EBC60000EB86100BEBB4
:1012C00080043BF8200094F8CB20E38CD4F8E410A1
:1012D000CDE90212CDE90030238B04F58672314648
:1012E000BC4808F0CFF9A188BBA008F0CBF900E01A
:1012F0009BE0C0A0216A08F0C5F9C4A0E16A08F02B
:10130000C1F900251BE004EB051090F888C090F8A7
:10131000873090F88620B0F88410CDE90212CDE92C
:10132000043C90F8832090F88210CDE90012B0F8C8
:101330008030C26F2946BBA008F0A4F96D1C94F858
:101340000401A842DFD894F8BF00009094F8BE20B2
:1013500094F8BC101346C3A008F094F9761CB6B2FA
:10136000734C20688642A6DDC6A008F08BF90820E1
:101370005D46ABF8000004F047F94FF4FA663046DA
:1013800004F044F9002003F085FF854A082100207D
:1013900003F07FFD04F038F9304604F037F93A469F
:1013A0000821002003F075FD3A460821012003F0D2
:1013B00070FD28880828EDD1B5F824010828E9D166
:1013C000298878A008F05EF9B5F824117BA008F010
:1013D00059F92888082806D0B5A008F053F903F079
:1013E000AAFE01261DE0BDA008F04CF98AF8009085
:1013F000D5F84411CAF81410D5F85011CAF81810CD
:1014000016E006EBC60000EB861035F82020082A0F
:1014100006D005EB800031464388BBA008F032F9C6
:10142000761C20688642ECD902E0C2A008F02AF9B6
:101430004546544620690128FCD10121084606F0A2
:1014400093FA00F0040020710120FFF70DF900F07D
:101450004000E0702179014301D02561EAE7BA48F4
:1014600008F010F984F801907BE610B5154C0121C5
:10147000204605F094FF012805D11C4A1078012868
:1014800007D004F0C1F82046BDE81040012105F066
:1014900092BF01201061D188491C89B2D180642992
:1014A00009D90021D1801189802903D24FF6FF701C
:1014B00000EA4100108102F04EFBE4E778040020CE
:1014C000FEFFFF7F000400400D0A57656C636F6DDF
:1014D0006520746F20746865204543415420576F20
:1014E000726C64200A0D0000880400203400002083
:1014F000506C6561736520706C756720696E20742F
:1015000068652045746865726E6574206361626CFD
:1015100065206669727374200A0D00000D0A536F0E
:10152000636B6574204D6F64653A2025640A0D0075
:10153000A4000020256420736C6176657320666FBB
:10154000756E6420616E6420636F6E666967757284
:1015500065642E0D0A000000466F756E64202573C9
:1015600020617420706F736974696F6E2025640A3E
:10157000000000007802002090D00300536C6176D8
:101580006573206D61707065642C2073746174657F
:1015900020746F20534146455F4F502E0A000000D3
:1015A00080841E00536C6176652030205374617412
:1015B000653D3078253034780D0A0000536C617633
:1015C0006520312053746174653D3078253034785E
:1015D0000D0A0000189C000820436F6E666967754D
:1015E00072656420616464726573733A2025780AB9
:1015F00000000000204F757470757473206164647E
:10160000726573733A2025780A00000020496E70D5
:1016100075747320616464726573733A2025780A67
:101620000000000020464D4D55253164204C733A92
:101630002578204C6C3A253464204C73623A25643A
:10164000204C65623A25642050733A257820507307
:10165000623A25642054793A2578204163743A250A
:10166000780A000020464D4D5566756E6320303A6D
:10167000256420313A256420323A256420333A2506
:10168000640A000052657175657374206F7065722D
:101690006174696F6E616C20737461746520666F2C
:1016A0007220616C6C20736C617665730A000000B7
:1016B0004E6F7420616C6C20736C61766573207260
:1016C000656163686564206F7065726174696F6ECF
:1016D000616C2073746174652E0A00004F7065722E
:1016E0006174696F6E616C207374617465207265DA
:1016F000616368656420666F7220616C6C20736C36
:10170000617665732E0A0000536C6176652025644E
:101710002053746174653D307825303478205374DB
:1017200061747573436F64653D3078253034780A91
:10173000000000004E6F20736C6176657320666F49
:10174000756E64210D0A00007C9C00082DE9F041B3
:101750009446DDE9072507461E4641F20C000C467B
:101760002844DDF818E0099B21F80E0F04F11A0057
:1017700081F802C0CE70A1F804E0CA800D812A462B
:10178000614600F0BAFB601900228276C27607EB50
:10179000860000F540401C35C0F84C541046BDE8AA
:1017A000F0812DE9F05F0C46DDE90C9500EB830735
:1017B0009446DDE90ABA07F5404731F80E8F05F186
:1017C0000C02DDF838E0D7F84C0442440A800A895C
:1017D00086B242F400420A8114FA80F000F802C98D
:1017E000BBF1000FC370A0F804A0A0F8069003D0CE
:1017F00045F40041018100E00581A01973462A46A5
:1018000061460A3000F079FB7019011900228A72D2
:10181000CA720C30C7F84C04301FBDE8F09F2DE9A8
:10182000FF479846DDE90C9A17460E46054604F038
:1018300035FBC4B240F2F72014FB00F08DE8C00382
:1018400005EB400046F26C5101442346082228462D
:10185000FFF77CFF52462146284604F039FD064634
:1018600000222146284604F047FB304604B0BDE87C
:10187000F0872DE9FF471E46DDE90C8A14460F4626
:10188000814604F00BFBC5B240F2F72015FB00F1D6
:1018900001AA009782E8500109EB410446F26C501E
:1018A00021182B4607224846FFF750FF524629468B
:1018B000484604F00DFD071E05DD04F12401324603
:1018C000404607F04EFE00222946484604F014FB2D
:1018D0003846CBE72DE9FF471E46DDE90C8A144662
:1018E0000F46814604F0DAFAC5B240F2F72015FB44
:1018F00000F101AA009782E8500109EB410446F289
:101900006C5021182B4601224846FFF71FFF524614
:101910002946484604F0DCFC071E05DD04F12401DD
:101920003246404607F01DFE00222946484604F094
:10193000E3FA38469AE72DE9FF471E46DDE90C8AAF
:1019400014460F46814604F0A9FAC5B240F2F720CA
:1019500015FB00F101AA009782E8500109EB410450
:1019600046F26C5021182B460D224846FFF7EEFE3A
:1019700052462946484604F0ABFC071E05DD04F13B
:1019800024013246404607F0ECFD00222946484635
:1019900004F0B2FA384669E72DE9FF471E46DDE953
:1019A0000C8A14460F46814604F078FAC5B240F21C
:1019B000F72015FB00F101AA009782E8500109EB1E
:1019C000410446F26C5021182B460E224846FFF780
:1019D000BDFE52462946484604F07AFC071E05DD46
:1019E00004F124013246404607F0BBFD002229469F
:1019F000484604F081FA384638E73EB50024ADF891
:101A0000084002ACCDE900430223FFF763FFBDF8B5
:101A100008003EBD2DE9FF471E46DDE90C8A14464D
:101A20000F46814604F03AFAC5B240F2F72015FBA2
:101A300000F101AA009782E8500109EB410446F247
:101A40006C5021182B4604224846FFF77FFE524671
:101A50002946484604F03CFC071E05DD04F124013C
:101A60003246404607F07DFD00222946484604F0F4
:101A700043FA3846FAE63EB50024ADF8084002AC19
:101A8000CDE900430223FFF7C5FFBDF808003EBDC6
:101A90002DE9FF479846DDE90C9A17460E460546A4
:101AA00004F0FCF9C4B240F2F72014FB00F08DE81A
:101AB000C00305EB400046F26C510144234602226C
:101AC0002846FFF743FE52462146284604F000FC14
:101AD000064600222146284604F00EFA3046C5E6A6
:101AE0001FB582B005AB089CCDE900340223FFF797
:101AF000CFFF06B010BD2DE9FF479846DDE90C9AEF
:101B000017460E46054604F0C9F9C4B240F2F72064
:101B100014FB00F08DE8C00305EB400046F26C5169
:101B20000144234605222846FFF710FE524621466F
:101B3000284604F0CDFB064600222146284604F044
:101B4000DBF9304692E61FB582B005AB089CCDE9C3
:101B500000340223FFF7CFFFCBE72DE9FF471E46F6
:101B600090460C4681460C9F04F098F9210CA2B2D5
:101B7000CDE90021C5B240F2F72015FB00F109EBD9
:101B8000410446F26C50CDE9028621182B460C2206
:101B90004846FFF7DBFD3A462946484604F098FBE5
:101BA000071E08DDA07E0C2805D104F12401424661
:101BB000304607F0D6FC00222946484604F09CF93E
:101BC000384653E62DE9FF471E4690460C468146AF
:101BD0000C9F04F063F9210CA2B2CDE90021C5B23B
:101BE00040F2F72015FB00F109EB410446F26C507E
:101BF000CDE9028621182B460A224846FFF7A6FDAA
:101C00003A462946484604F063FB071E08DDA07EDD
:101C10000A2805D104F124014246304607F0A1FC10
:101C200000222946484604F067F938461EE62DE9A9
:101C3000FF47984617460D460646DDF8309004F0FB
:101C40002DF9C4B2290CAAB240F2F72014FB00F01F
:101C5000CDE9002106EB400046F26C51CDE9027857
:101C6000014423460B223046FFF770FD4A462146C9
:101C7000304604F02DFB054600222146304604F094
:101C80003BF92846F2E52DE9F04F89B09946DDE9A8
:101C900012B816460C46824604F000F9A2B201AB17
:101CA000210C009283E84202C5B240F2F72015FBF6
:101CB00000F10AEB410446F26C5021180F462B4606
:101CC0000C225046FFF742FDD8E90010CDE906107E
:101CD0000020009006A90422CDE903214FF41163EE
:101CE000CDE901B339462B460E225046FFF759FD88
:101CF00087B229465046149A04F0EAFA0090002868
:101D000014DDA07E0C2811D104F12401324648468E
:101D100007F027FCA019808CADF80000E01981695C
:101D20000691C0690A460790C8E9002000222946AA
:101D3000504604F0E1F8009809B0BDE8F08F7FB597
:101D40000DF1200C1C4615460E469CE80E000DF1C8
:101D5000040C00948CE80E0001462B463246714874
:101D6000FFF7F4FC04B070BDF0B585B00DF1280CA0
:101D70001D4616460F469CE81E000DF1040C00950A
:101D80008CE81E00014633463A466648FFF709FDD7
:101D900005B0F0BD1CB50C460499CDE900311346E1
:101DA000014622465F48FFF73AFD1CBD1CB50C46B4
:101DB0000499CDE900311346014622465948FFF700
:101DC00058FD1CBD1CB50C460499CDE900311346E5
:101DD000014622465348FFF77DFD1CBD1CB50C464D
:101DE0000499CDE900311346014622464D48FFF7DC
:101DF000A2FD1CBD1CB50C460499CDE9003113466B
:101E0000014622464748FFF7C7FD1CBD1CB500230D
:101E1000ADF80430009201AB0222FFF7D3FFBDF80A
:101E200004001CBD1CB50C460499CDE900311346D5
:101E3000014622463B48FFF7EDFD1CBD1CB50023C3
:101E4000ADF80430009201AB0222FFF7EBFFBDF8C2
:101E500004001CBD1CB50C460499CDE900311346A5
:101E6000014622462F48FFF713FE1CBD0FB581B077
:101E70000222009303ABFFF7EDFF05B000BD1CB5D8
:101E80000C460499CDE90031134601462246254807
:101E9000FFF731FE1CBD0FB581B00222009303ABEA
:101EA000FFF7EDFFE9E708B5009313460A46014640
:101EB0001C48FFF752FE08BD08B5009313460A46BA
:101EC00001461848FFF77EFE08BD08B5009313468B
:101ED0000A4601461348FFF7AAFE08BD3EB5144660
:101EE0000D46DDE90612CDE9003102920146234696
:101EF0002A460C48FFF7C7FE3EBD002A10D0042931
:101F00000BD003DC49B1012904D106E0072904D034
:101F10000A2902D0194607F024BB114607F03ABB44
:101F2000704700004C3A002070B50546FE4C00207A
:101F3000401C00EB800202EBC00354F82320561C27
:101F400007D0AA42F4D104EB830252688A42EFD14F
:101F500070BD002070BD10B504460020A168086067
:101F6000E1684FF492704143606807F013FB6169C8
:101F70004FF494704143206907F00CFB4FF48052FA
:101F80000021204601F0BEFF002108E001EB8103A3
:101F90002269080403EB4113491C42F833006069CD
:101FA0008842F3DC10BD2DE9FF4141F2707502AEAD
:101FB0000446CDE9006500208DF80800012340F2B9
:101FC000031200212068FFF72AFCCDE900651120EB
:101FD0008DF808004FF4907701233A4600212068DD
:101FE000FFF71DFCCDE9006501233A46002120687A
:101FF000FFF715FC44F6206103A8CDE9000100229B
:10200000022311462068FFF734FC002803DD142862
:1020100004DAA168086004B0BDE8F081014614222A
:10202000C24807F02FFB6FF00300F4E72DE9F043FF
:1020300095B00446402102A807F0ACFA41F2707551
:1020400012AE4FF00009CDE900658DF848900123EC
:1020500040F2011249462068FFF7E1FB0DF14C0800
:10206000CDE900850420ADF84C0002231A020021BE
:102070002068FFF7D4FB02AFCDE9007508234FF4C9
:10208000407200212068FFF7CAFBCDE900753023BC
:102090005A0100212068FFF7C2FBCDE9007520231B
:1020A0009A0100212068FFF7BAFBCDE900750423EF
:1020B0004FF4116200212068FFF7B1FBCDE90085E4
:1020C0004FF48050ADF84C0002234FF4136200210E
:1020D0002068FFF7A4FBCDE900854FF44060ADF820
:1020E0004C00022340F6341200212068FFF797FBD2
:1020F000CDE900658DF84890012340F203120021DC
:102100002068FFF78CFBCDE9006511208DF84800B1
:1021100001234FF4907200212068FFF780FBCDE986
:10212000006502208DF848004FF4A06701233A466D
:1021300000212068FFF773FBCDE900658DF848901A
:1021400001233A4600212068FFF769FB15B0BDE87E
:10215000F0832DE9F041406801EBC10202EB8111EF
:1021600000EB8104D4E90201FFF7DEFE0646A4F885
:10217000F600300041D006EB860000EBC6016A484D
:1021800000EB810505F10801687FE08204F58670A7
:1021900007F00BFAE88BE084298C2183012309B135
:1021A00084F8BC30022708B184F8BD7095F830205F
:1021B00084F8882095F8312084F898206A8CA4F857
:1021C0004420D5F824C0C4F848C04FF0030C01B136
:1021D000AAB1C91DC908A4F8461084F876C0298D93
:1021E000A4F84C10EA6A2265042200B1B1B1C01D06
:1021F000C008A4F84E0084F8772030460CE74FF46E
:102200007062C91DA286C908E1864949A16384F8A4
:10221000883084F8877084F874C0E0E74FF4805108
:10222000C01DA187C008E0870020206484F8983092
:1022300084F8973084F87520DFE72DE9F047894668
:102240000646012976D9B0680068002872DD09EBDE
:10225000C90101EB89144FF0080C70680CEB840184
:102260000127425800E07F1C07EBC70101EB8715EF
:102270000CEB85014158914211D10C2101EB8503F2
:1022800001EB8401C35841588B4208D1102101EB66
:10229000850301EB8401C35841588B4201D04F455F
:1022A000E1DB4F4546DA07EBC70101EB8712FC2162
:1022B00001EB820201EB8401825C4254FD217068D3
:1022C00001EB850201EB8401825C4254FE217068BF
:1022D00001EB850201EB8401825C4254FF217068AE
:1022E00001EB850201EB8401825C42544FF4817161
:1022F000706801EB8502825C4AB101EB8401012226
:102300004254706890F80211491C80F802114FF491
:102310008072706802EB850102EB8402415A81529F
:102320007068B0F8002106E0589B0008C09C0008C7
:10233000440001005BE01144A0F800114FF48672E4
:1023400002EB8501706802EB8402014410441522FF
:1023500007F007F900204FF0340C4FF0360A4FF029
:10236000380872680CEBC00102EB850302EB8402B3
:102370005B5A535271680AEBC00201EB850301EB13
:1023800084019B5A8B52726808EBC00102EB8503F3
:1023900002EB84025B58401C53500828E1DBBC214F
:1023A000706801EB850201EB8401825C4254BD211F
:1023B000706801EB850201EB8401825C4254BE210E
:1023C000706801EB850201EB8401825C4254BF21FD
:1023D000706801EB850201EB8401825C42543A464D
:1023E0004946FEA007F04EF90120BDE8F087002025
:1023F000FBE72DE9F34F87B00446FFF7ACFD20461D
:10240000FFF7D1FD049000286FDD2046FFF70EFE98
:102410000125AA4661E0C5F101001FFA80F841F2EA
:1024200070773B464FF4A07241462068FFF7E5FA0B
:1024300005EBC50202EB85166168142202EB8602E9
:10244000885205F57A7083B20097102241462068C1
:10245000FFF746FB012D49D0002300974FF480720F
:1024600041462068FFF73CFB3B461022414620686E
:10247000FFF7C3FA6268042101EB860150528046DF
:1024800005A8CDE900070223122241462068FFF784
:10249000C1FA61680622BDF8140002EB8602885278
:1024A00003A8CDE90007022340F20252414620680A
:1024B000FFF7B0FABDF80C00ADF80C00400605D5EA
:1024C000FA22616802EB860201F802A0082229467E
:1024D000204602F04FFC6D1CADB2A0680068A84217
:1024E00099DA012544F6206617E011E30123B4E7E9
:1024F00032462946204602F08BFC05EBC50101EB74
:1025000085130821626801EB830150500A22294695
:10251000204602F02FFC6D1CADB2A0680068A842F6
:10252000E6DA012514E032462946204602F070FC26
:1025300005EBC50101EB85130C21626801EB8301FA
:1025400050500C222946204602F014FC6D1CADB2FE
:10255000A0680068A842E6DA0125102713E0324699
:102560002946204602F054FC05EBC50202EB851219
:10257000616807EB8202885018222946204602F043
:10258000F9FB6D1CADB2A0680068A842E7DA01252E
:102590001DE044F620622946204602F039FC05EB96
:1025A000C501636801EB8511C22202EB81029852DA
:1025B00063684FF0C002000C02EB8101585204D056
:1025C0001A222946204602F0D5FB6D1CADB2A06848
:1025D0000068A842DDDA4FF001084FF0020B91E2EB
:1025E00000EBC002616802EB8815C02000EB850992
:1025F00031F80900D8B144F620624146204602F085
:1026000007FC6268C62101EB85015052010C63682A
:102610004FF0C40000EB85029952606802D130F897
:10262000091081521C224146204602F0A3FB61683A
:10263000042000EB8500085A029041F270730822D2
:1026400020680299FFF717FA400706D5CB20626889
:1026500000EB850002F800A005E00021CB206268B5
:1026600000EB8500115441F270734FF488722068BA
:102670000299FFF700FA0026C0F30121374602292C
:1026800001D101263746C0F38121022902D147F04A
:102690000207761CC0F30131022902D147F004077A
:1026A000761CBBEB903F02D147F00807761C41F245
:1026B0007073072220680299FFF7DDF9CC22616868
:1026C00002EB85024FF0CD0C885460680CEB85015D
:1026D0004654CE20616800EB85000F54D02062681C
:1026E000002100EB85069153B8F1010F25D9A8F11F
:1026F0000101002009B201EBC10202EB8112636803
:102700000CEB82029A5C012A04D0032A04D0042A2A
:102710000BD003E0401E00E0401C00B2002801DBAB
:10272000012A04D8012902D003E0801CF5E799535F
:102730000121491E09B20029DDDC2F4B012241464F
:10274000204601F028FF606830F80910F1B37422C8
:1027500002EB8502032100F802A07520626800EBFD
:10276000850002F800B07620626800EB8500115405
:102770007722616802EB8502042088546068C221D8
:1027800001EB8501425A342101EB85014252606818
:10279000362101EB850130F8092042523821626868
:1027A00001EB8501154850506068C62101EB850199
:1027B000425A3C2101EB850142526068C42101EB81
:1027C0008501425A3E2101EB850100E025E042529D
:1027D0000A48001F402202EB850211E0436F707926
:1027E0002053494920736C61766520256420667208
:1027F0006F6D2025642E0A0080841E0026000100D3
:102800006168885044F620624146204602F000FB91
:102810006168C82202EB850288520898012805D118
:1028200041462046FFF795FC00287CD141462046D2
:10283000FFF703FD0028F8D11E224146204601F093
:10284000F6FB0604360C64D0F01D82B241462046E9
:1028500001F058FBFC22616802EB8502885406F106
:10286000080082B24146204601F04CFBFD2162681F
:1028700001EB8501505406F1090082B24146204621
:1028800001F040FBFE21626801EB8501505406F126
:102890000A0082B24146204601F034FBFF21626803
:1028A00001EB8501505406F10D0082B241462046ED
:1028B00001F028FB80070CD54FF48171626801EBB1
:1028C000850102F801A0606890F80211491C80F8A7
:1028D000021106F10E0082B24146204601F012FBC1
:1028E00001464FF48070626800EB85070F36D153C4
:1028F000B2B24146204601F005FB01466068C25B6A
:1029000002EB0121C1536068B0F800211144A0F826
:1029100000110A224146204601F089FB00280DDD06
:102920004FF4867000E08EE0616800EB85000144A2
:1029300001234246204601F0CDFB10E00C216068E7
:1029400001EB85014358082101EB850142584FF402
:10295000867101EB85010844FCA106F0A3FE414607
:102960002046626C01F06CFC002842DD606C6168FE
:1029700036278288342000EB85000A52606C61683B
:1029800007EB8502C0888852606C6268017A807AA1
:1029900001EB0041382000EB85000126115020E0BA
:1029A000606C8188606800EB8502342000EBC60013
:1029B0001152606C616807EBC60201EB8501C088AB
:1029C0008852606C017A807A01EB0041606800EB0C
:1029D0008502382000EBC600761CF6B21150082E96
:1029E00007D2334641462046626C01F0A1FC002824
:1029F000D6D141462046A26C01F0C5FB18B3A06CAD
:102A0000C078FF2804D0BC21626801EB85015054D6
:102A1000A06C0079FF2804D0BD21626801EB85011C
:102A20005054A06C4079FF2804D0BE21626801EBAD
:102A300085015054A06C8079FF2804D0BF216268C2
:102A400001EB85015054616831F80900F0B334207E
:102A500000EB85000A5AA2B94FF480520A5263680B
:102A60003621802201EB85015A523822636802EB3D
:102A70008502BB4999507421636801EB850103F815
:102A800001A061683C2202EB85028B5AABB94FF47E
:102A900084538B5263683E21802201EB85015A5298
:102AA000AF494022636802EB8502091F99507521E6
:102AB000636801EB850103F801B0626841F270714F
:102AC00010441023CDE90001DA0100E003E02068A2
:102AD0000299FFF710F84146204601F07AFA41F2D8
:102AE0007070009012231A0120680299FFF72BF8EA
:102AF0009C4B02224146204601F04DFD08F10100A9
:102B00001FFA80F8A068016840464145BFF668ADED
:102B1000049809B0BDE8F08F2DE9F0479A46914638
:102B200001296CD982681268002A68DD01EBC103B3
:102B300003EB81134FF00808456808EB830401227A
:102B400055F804C000E0521C02EBC20404EB8214EE
:102B500008EB8406AE59664511D10C2606EB8407B6
:102B600006EB8306EF59AE59B74208D1102606EBA3
:102B7000840706EB8306EF59AE59B74201D08A426B
:102B8000E1DB8A423BDA00254FF03608476808EB64
:102B9000C50607EB840C07EB83073CF806C027F853
:102BA00006C0476805F1740607EB840C07EB830742
:102BB0001CF806C06D1C07F806C0082DE6DB466849
:102BC000182505EB8407F75BC9F8007047682626CF
:102BD00006EB84043F5BCAF800704768B9F8004010
:102BE00005EB83057C534068BAF8004006EB83038D
:102BF000C4525DA006F046FD0120BDE8F08700202C
:102C0000FBE72DE9F34FADF6244D04464168DDF8AE
:102C1000280C00EBC00202EB8015182000EB8508A1
:102C200031F80800CDF81C0C6168262000EB850AFD
:102C300031F80A00DDF81C1CCDF8180C08436ED1E1
:102C40000DF618431A1D2046DDF8281CFFF764FF17
:102C50000DF6184003C8084361D140F61841684694
:102C600006F098FC00236A462046DDF8281C01F097
:102C7000C7FB0146CDF8180C43A006F003FD002762
:102C80004FF0040B6E464FF0360906EB4700B0F8E4
:102C9000061CA1B1C91DCA08616801EB850309EBD7
:102CA000C7015A526268394602EB850307F1740284
:102CB00003F802B0B0F8062C37A006F0E3FC7F1C46
:102CC000082FE2DB01236A462046DDF8281C01F0CC
:102CD00097FB0146CDF81C0C34A006F0D3FC00276E
:102CE0004FF0030B06EB4701B1F8060CA0B1C01D75
:102CF000C208606800EB850309EBC7001A526268DE
:102D000025A002EB850307F1740203F802B0B1F8C5
:102D1000062C394606F0B6FC7F1C082FE2DB626801
:102D2000DDF81C0C22F80800DDF8180C626881B28E
:102D300022A022F80A10626832F80830DDF8182C58
:102D400006F0A0FC01200DF62C4DE3E63F204D3AA5
:102D500025382E387820493A25382E38780000005A
:102D60002600010080841E00436F7079206D617021
:102D700070696E6720736C617665202564206672C9
:102D80006F6D2025642E0A00202053494920497385
:102D9000697A653A25640A0020202020534D256475
:102DA000206C656E6774682025640A0020205349F2
:102DB00049204F73697A653A25640A002020202053
:102DC000204953495A453A2564202564204F5349E8
:102DD0005A453A25640A00002DE9FE4F064601EBEC
:102DE000C102406802EB8115042101EB8501405AC4
:102DF0000290F4A006F046FC7068C02101EB850744
:102E0000C15B4FF0340A41F270794FF4006B4FF020
:102E10003808002938D10AEB8504015BB9B1204498
:102E2000CDE9000908235A4630680299FEF763FE8F
:102E3000706808EB85014358742101EB8501025B42
:102E4000415CE5A006F01EFC7068C05BE0B97068EC
:102E50003C2101EB8504015BB1B12044CDE90009BF
:102E6000082340F6080230680299FEF744FE40212C
:102E7000706801EB85014358752101EB8501025B08
:102E8000415CE1A006F0FEFB022470680AEBC40777
:102E900000EB8500C15B41B3362101EBC401415A0F
:102EA000002908EBC40142583FD042F4803242501E
:102EB00071680BEBC40001EB85013944CDE90019C1
:102EC00082B2082330680299FEF715FE706808EB9D
:102ED000C40100EB85004158009104F17401C35B0B
:102EE000425C2146D4A006F0CDFB641C082CCCDB50
:102EF0007168262000EB8500085A072805D9C01DF7
:102F0000C008282202EB850288507168182000EB67
:102F10008500085A072805D9C01DC0081C2202EBED
:102F2000850288500120BDE8FE8F22F48032BEE782
:102F30002DE9FF5F8B4616460BEBCB02044602EBF6
:102F40008B154168042000EB8508CBF1010031F8B6
:102F5000087080B202904FF6FE70ADF80C0003A826
:102F6000CDE900064FF0000A0223102220680299E2
:102F7000FEF7B0FC81B2BDF80C00B84203D10220CC
:102F800004B0BDE8F09F00297ED000287CD141F23A
:102F90007079CDF80090F02340F201122068029978
:102FA000FEF79EFDCDF8009000234FF4407220689C
:102FB0000299FEF795FDCDF8009011234FF4907221
:102FC00020680299FEF78CFD002000904FF6FF79F3
:102FD0000023102249462068FEF7B5FD00964B46B7
:102FE000102220680299FEF77BFD002809DC0020F2
:102FF00000900023102249462068FEF7A4FD00201F
:10300000BEE762685946204622F8089000F036FF75
:103010003346122249462068FEF72DFD61680622DC
:1030200002EB8502895A884234D144F620630A2291
:103030005946204601F0B1FC0C22616802EB850282
:103040008958884226D144F62063082259462046F2
:1030500001F0A3FC0822616802EB850289588842CE
:1030600018D144F620630C225946204601F095FC05
:103070001022616802EB8502895888420AD10096C5
:103080003B461022494600E00EE02068FEF75BFD5B
:10309000824606E000960023102249462068FEF78B
:1030A00052FD616821F80870504669E701466E4894
:1030B000FFF79FB92DE9F74F044680684FF0000BEA
:1030C00090B00068DA4600287ADD61691298814282
:1030D000FADD024665A0119906F0D4FA129821692A
:1030E00000EB800202EB4010029051F830501C239C
:1030F00003EBC000D94607950B9021F80090029889
:103100002221236901EBC0000C9023F80090029863
:103110002369242101EBC0000A9023F80090A168E4
:103120000120096801E0401C80B28142FBDA0126DF
:1031300018E0129860B106EBC60000EB861240F270
:103140000310616800EB8200095C1298814207D18C
:1031500031462046FFF755FD31462046FFF73CFE3D
:10316000761CB6B2A0680068B042E2DA0120F4E151
:103170000399606801EBC10202EB8116042101EBA7
:103180008601415A0891129939B140F2031101EBBD
:103190008601425C12998A4213D14FF4827101EB8D
:1031A00086010D9110F801800027182101EB86019E
:1031B0000497069705970991405A002801D069E0C5
:1031C000F1E3C5E12020534D2070726F6772616D8D
:1031D0006D696E670A00000020202020534D3020CA
:1031E000547970653A256420537461727441646443
:1031F000723A25342E347820466C6167733A25384C
:103200002E38780A0000000020202020534D312065
:10321000547970653A256420537461727441646412
:10322000723A25342E347820466C6167733A25381B
:103230002E38780A0000000020202020534D2564FD
:1032400020547970653A2564205374617274416426
:1032500064723A25342E347820466C6167733A25BF
:10326000382E38780A0000005400002065635F6340
:103270006F6E6669675F6D61705F67726F757020F2
:10328000494F6D61703A25702067726F75703A25ED
:10329000640A0000F8A006F0F5F932E14146FBA00F
:1032A00006F0F0F901E07F1CFFB2072F07D260683B
:1032B00000EB860107F17400085C0328F3D139465E
:1032C000F6A006F0DFF96068342100EB860001EB20
:1032D000C701842330F801C003EB081220F802C0B4
:1032E0006068059B00EB8602362000EBC700105A91
:1032F00003440593069B03EBC0030693515A28E051
:103300007F1CFFB200EB860101E07F1CFFB2072F9C
:1033100004D207F174028A5C032AF6D1342202EB4C
:10332000C7020092895A99421DD83946DBA006F09F
:10333000A9F96068059A00EB8601362000EBC7000A
:10334000085A02440592069A02EBC0020692009ABD
:10335000895A084483B260680999425A06998A4298
:1033600001DD072FCCD31C21626801EB8601525886
:10337000F2B3B9F1000F02D04FF000096D1C00EB61
:1033800086037C2202EB08101D506268822302EB48
:10339000860C03EB081207230CF80290626805986C
:1033A000DDF810C051588444614501DA0498081AC8
:1033B00002EB860C802202EB08112CF801006168F8
:1033C000832201EB860C02EB081105440CF8013056
:1033D0004FF0000904998622084404906168002097
:1033E00001EB860302EB081102225854606800E0EA
:1033F0002FE000EB8603872000EB08101A54616869
:10340000882201EB860302EB081101205854606802
:1034100041F2707200EB86037C2000EB08100E90E6
:103420001844CDE900024FF4C06101EB08121023EB
:1034300020680899FEF75FFB20690C990C9A415AA5
:10344000491C81522020616800EB86000A58C2B3F3
:1034500051E000EB86027C2000EB0810822315501F
:10346000616801EB860C03EB08110CF801906268AF
:103470000999535CA9F101011944C9B2072902D97C
:103480000839C9B26D1C02EB86024FF0800C10584F
:103490000CEB0813281A401CD0526268832302EBFD
:1034A000860C03EB08120CF80210491C01F0FF090E
:1034B000B9F1070F8ED9A9F1080101F0FF096D1CC0
:1034C00088E7FFE70E9A01EB86039B58119A1A448E
:1034D0000A506168822301EB860C03EB08121CF88A
:1034E0000230242202EB86028B5461680A586EA0D7
:1034F000039906F0C7F808F1010000F0FF08072F54
:1035000008D261680998085A0499C01DB1EBD00F20
:10351000FFF6C4AE62680D9902F80180079840F288
:10352000BA52281A0AEB00010795914211D9236972
:10353000029A282603EBC20306EB8B02BBF13F0F76
:1035400043F802A006D20BF101011FFA81FB82466B
:1035500000E08A460398401C80B20390A06801688E
:1035600003988142BFF604AEB9F1000F1BD06D1C69
:103570000AF1010040F2BA514FF000090795884264
:1035800035D922690299282302EBC10203EB8B0192
:10359000BBF13F0F42F801A005D20BF101001FFA69
:1035A00080FB0120824602992269082303EBC101B6
:1035B0001198505002982269042101EBC0000C9030
:1035C000155023690B9A0BF1010098522369029858
:1035D0001E2606EBC00023F800B02669029A2023BD
:1035E00003EBC20226F802A0129818B107E00AF114
:1035F0000100D7E76268119810626068C561012018
:1036000006E20399606801EBC10202EB8116042116
:1036100001EB8601415A0891129939B140F2031128
:1036200001EB8601425C12998A427DD14FF482718E
:1036300001EB86010D91475C182101EB8601415A8F
:1036400049B17C2200EB860102EB0713CB5813B182
:103650007F1CFFB2F8E74FF00008262101EB86013E
:10366000CDF81080CDF81880CDF814800991405A1B
:10367000002870D02CE0000020204F5554505554A5
:10368000204D415050494E470A0000002020202084
:10369000464D4D552025640A0000000020202020C2
:1036A0002020534D25640A0020202020736C617671
:1036B00065202564204F7574707574732025702003
:1036C00073746172746269742025640A00000000DA
:1036D000FEA0039905F0D6FF3EE13946AFF2540053
:1036E00005F0D0FF03E008F1010000F0FF08B8F199
:1036F000070F07D2606800EB860108F17400085CD0
:103700000428F0D14146AFF26C0005F0BBFF6068C1
:10371000342100EB860001EBC8018422435A02EBFE
:1037200007128352606800E06FE100EB86023623E7
:1037300003EBC800105A059B03440593069B03EB5B
:10374000C0030693515A30E008F1010101F0FF086F
:1037500000EB860104E025E108F1010202F0FF0818
:10376000B8F1070F04D208F174028A5C042AF3D17D
:10377000342202EBC8020092895AC44699421FD8EB
:103780006146AFF2E80005F07DFF6068362200EB8D
:10379000860102EBC800085A059A02440592069A6F
:1037A00002EBC0020692009A895A084483B260680C
:1037B0000999425A06998A4202DDB8F1070FC3D32C
:1037C0002821626801EB86015258E2B3B9F1000F7B
:1037D00002D04FF000096D1C00EB86027C2000EB4C
:1037E00007101550626802EB8603822202EB071273
:1037F00003F8029062680598DDF810C0515807235D
:103800008444614501DA0498081A02EB860280219B
:1038100001EB071150526168054401EB86028321D8
:1038200001EB07114FF00009535404990844049028
:103830006068802100EB860001EB0711415A79B3E3
:103840000021862200E032E002EB071210238154AF
:103850006168012001EB8602872101EB07115054BA
:10386000616801EB8602882101EB07115054606802
:1038700041F2707100EB86027C2000EB07101044CF
:10388000CDE900014FF4C06000EB071220680899F1
:10389000FEF731F920690A990A9A415A491C815266
:1038A0002C20616800EB86000A58B2B34FE000EBB1
:1038B00086017C2000EB07100D50616801EB860348
:1038C000822101EB071103F8019062680999535CAA
:1038D000A9F101011944C9B2072902D90839C9B2AD
:1038E0006D1C02EB86028023105803EB0713281A85
:1038F000401CD052626802EB8603832202EB07125F
:103900009954491C01F0FF09B9F1070F8DD9A9F1AC
:10391000080101F0FF096D1C87E7FFE77C2201EB3E
:10392000860302EB07129B58119A1A440A506168E9
:10393000822201EB860302EB07129A5C302303EB31
:103940008603CA546168095867A005F09BFE7F1C76
:10395000FFB2B8F1070F08D261680998085A0499B4
:10396000C01DB1EBD00FFFF6B8AE61680D9840F204
:10397000BA520F5407980795281A0AEB0001914292
:1039800012D92369029A282703EBC20307EB8B02A3
:10399000BBF13F0F43F802A007D20BF101011FFA60
:1039A00081FB824601E0BDE08A462046039900F093
:1039B00010FB41F27070009004234FF49072206865
:1039C0000899FEF7C0F84F4A0421039801F061FA04
:1039D0004FF48171606801EB8601405C38B1029957
:1039E00020691A2202EBC101425C521C4254206938
:1039F000029A636818214FF4807701EBC20107EB4C
:103A00008606425A9B5B1A4442520398401C80B27D
:103A10000390A068016803988142BFF6F2ADB9F146
:103A2000000F18D00AF1010040F2BA516D1C884213
:103A300035D922690299282302EBC10203EB8B01DD
:103A4000BBF13F0F42F801A005D20BF101001FFAB4
:103A500080FB0120824622690299282302EBC102E1
:103A600003EB8B010BF1010042F801A022690B99D5
:103A70001023505220690C99425811990A44029916
:103A800003EBC101425020690C9941586A1A02990E
:103A90000C2303EBC1014250129818B10BE00AF15C
:103AA0000100D7E760681199C2691144C16260687A
:103AB000C169691A81622169029851F83000291A96
:103AC00011A005F0DFFD2169029825E0203D536C2F
:103AD0006176652025642C20494E505554204D4177
:103AE0005050494E470A000020202020496E707532
:103AF0007473202570207374617274626974202558
:103B0000640A000080841E00494F6D617053697A19
:103B1000652025640A00000051F83000281A13B00F
:103B2000BDE8F08F0020FAE70A4601461748FFF784
:103B3000C1BA0021F8E710B5FFF7B8FA041E03DD9B
:103B4000014613A005F09EFD204610BD0A46014621
:103B50000E48FFF7EDB9144810B50078012814D1CC
:103B600001F052FD4FF4FA6001F050FD0F49114A87
:103B700000200F4B0978126805E000EB4004401C60
:103B800003F81410C0B29042F7DB10BD54000020BF
:103B9000454143542046696E6420256420736C615E
:103BA0007665730A0D000000340000203C00002000
:103BB00078020020A400002070B5426A0424B2F903
:103BC000003004EB03131A446AC982E86A00416AB0
:103BD0000123B1F9002004EB021200248B54416A46
:103BE0000A88521C12B20A80416A402A00DD0C8009
:103BF000416AB1F90050B1F90220954201D1521C3D
:103C00004A80416AB1F90220402A00DD4C80C06A36
:103C1000037070BDF0B5426AB2F90030B2F90240EB
:103C2000A34201D0012300E00023042505EB041486
:103C30002244D4CA81E8D400416A0024B1F90220A8
:103C400005EB02128C544BB1426A5188491C09B2EF
:103C50005180406A402903DD448001E0C06A04705D
:103C60001846F0BD3FB500240194079D0094ADF8BF
:103C7000042002940394ADF802108DF80630C26A55
:103C80000121117003218DF80710ADF80850694625
:103C9000FFF792FF3FBD0068002102F099B830B5F0
:103CA0000446006885B000F54040C0F8881A00213D
:103CB000206802F08DF80121206802F089F805469D
:103CC00020684CF28C410844FE4A0DF1040C04AB10
:103CD000128852BA028100200222049000908CE8DF
:103CE0000D002068002301440722FDF72FFD206806
:103CF0001E2100F54040C0F87C1A05B0284630BDB2
:103D00002DE9FF4F002583B09846144681462E4684
:103D1000FDF79BF80746AA464FF4FA6B6D1C012D80
:103D200002D0C820FDF7B4F8A4F800A0CDE9004BFC
:103D3000022340F20252D9F800000499FDF76AFE0E
:103D4000011E2088208001DD000407D5FDF77DF8E5
:103D5000C11B4145E2D32088000400D4012607B0EE
:103D60003046BDE8F08F2DE9FF4F89B00026079659
:103D7000CDE9026693460546344604AA0C9B0A998F
:103D8000FFF7BEFF002875D0BDF8100040F20257C3
:103D900010F4F04F0CD041F2707104A8CDE900018D
:103DA000ADF8104002233A4628680A99FDF7A3FEB1
:103DB0004FF4FA674FF4A16A4FF480704FF0000897
:103DC000ADF81400ADF816B0ADF8188044460DF10A
:103DD0001409CDE90097062340F2025228680A9997
:103DE000FDF789FE002804DC2146641C0329F0DB72
:103DF00048B3C820FDF74CF8ADF8108004AA284657
:103E00000C9B0A99FFF77CFFE8B1BDF81000810414
:103E100005D54FF47A70761CFDF73AF827E00026B6
:103E20004006344610D50DF10808CDE90087082377
:103E3000524628680A99FDF7EDFD002817DC204658
:103E4000641C0328F1DB12E00DF11C09CDE9009799
:103E50000423524628680A99FDF7DCFD002803DC9C
:103E60002046641C0328F1DB0799CDE90218701E77
:103E70000228A1D3DDE902010DB072E72DE9FE4F62
:103E8000054601EBC10303EB8111FB236A6803EBD9
:103E90008109012012F809300024002B30D00420C1
:103EA00000EB810032F800B002208DF808004FF4DA
:103EB000FA674FF4A06802AECDE9006701234246DD
:103EC00059462868FDF717FE002803DC2046641CCD
:103ED0000328F0DB4FF0000A8DF808A05446CDE926
:103EE00000670123424659462868FDF704FE002872
:103EF00003DC2146641C0329F1DB6B6803F809A08D
:103F0000BDE8FE8F2DE9F0470446008C0E46FF27E2
:103F10001546B04205D04FF40071E06905F03AFB58
:103F20002684B5F5805F0DD2E2696809A5EB4011E2
:103F300052F820204FF0010909FA01F0024204D0A2
:103F4000A069475D3846BDE8F08706EBC60101EB86
:103F500086176068042101EB870130F80180314643
:103F60002046FFF78BFF6E0844F620633246414639
:103F70002046FFF7F8FEFA23626803EB8703D25C62
:103F800032B1A269082702EB46021060516004E0DA
:103F9000A169042701EB4601086031097000A0EB1C
:103FA000411080B200224E4610E0E36906FA00F8A4
:103FB000401C53F821C080B24CEA080C43F821C0E1
:103FC0001F2802D90020491C89B2521CBA42ECDBDE
:103FD000B6E72DE9FE4F054601EBC10303EB811166
:103FE000FB236A6803EB81060120935D0024002B0C
:103FF00086D1042000EB810032F8009001278DF873
:1040000008704FF4FA684FF4A06A02A9CDE90018CD
:104010000123524649462868FDF76DFD002803DC60
:104020002146641C0329F0DB69688F5568E72DE998
:10403000F04789461546824609EBC902416802EB02
:104040008910FB2202EB800080220E5C812749460A
:104050005046FFF757FF804682243A46494650466D
:10406000FFF750FF08EB002020E0A2B2494650467F
:10407000641CFFF747FF0746A2B249465046641C3E
:10408000FFF740FF07EB002004EB4004A2B24946D3
:104090005046641CFFF736FFA2B20746641C24B2E8
:1040A00049465046FFF72EFF07EB002080B2A8429A
:1040B00003D0A0F57F41FF39D7D1A84200D000241A
:1040C00036B101E0F49B000849465046FFF781FFF6
:1040D000204638E72DE9FF5F8A4600989946554605
:1040E0004168029800EBC00202EB8010FB2202EB59
:1040F00080000A2211F800B002990098FFF797FF9C
:104100000004000C34D0801C82B2501C84B202998E
:104110000098FFF7F7FE814528D8012724E02246C2
:10412000641CA4B202990098FFF7ECFE80464F454C
:1041300003D204EB080084B214E0554601260FE0D8
:10414000142E09D82246641CA4B202990098FFF7E5
:10415000D9FE05F8010B01E0641CA4B2761CB6B2CE
:104160004645EDD97F1CBFB24F45D8D900202870F5
:10417000BBF1000F05D00299009804B0BDE8F05FD4
:1041800027E7BDE8FF9F2DE9F0470F46144681461B
:1041900001EBC701406801EB8711FB2202EB8101B3
:1041A0002822465C0020A070E07020716071A07130
:1041B00039464846FFF73BFF0204120C228038D0F4
:1041C000501C85B239464846FFF79CFEA070681C1B
:1041D0001FFA80F82A4639464846FFF793FEA17831
:1041E000424601EB00204000A07008F1010085B2BA
:1041F00039464846FFF786FEE070681C1FFA80F8D3
:104200002A4639464846FFF77DFE2071A0780228ED
:104210000FD9424608F101081FFA88F53946484689
:10422000FFF770FE60712A4639464846FFF76AFE7E
:10423000A0711EB139464846FFF7CBFEA07882E652
:104240002DE9F04789461446824609EBC9024168C8
:1042500002EB8910FB2202EB800029220E5C002079
:10426000A07049465046FFF7E2FE0204120C22807D
:1042700057D0501C85B249465046FFF743FE0746CB
:10428000681C1FFA80F82A4649465046FFF73AFE56
:1042900007EB00208008A07008F1010085B24246BB
:1042A00049465046FFF72EFEA080681C87B22A467A
:1042B00049465046FFF726FEA1883A4601EB00200A
:1042C000A080781C85B249465046FFF71BFEE0806F
:1042D000681C87B22A4649465046FFF713FEE1881C
:1042E0003A4601EB0020E080781C85B249465046F2
:1042F000FFF708FE2072681C87B22A4649465046DE
:10430000FFF700FE6072781C85B23A464946504677
:10431000FFF7F8FDA0722A4649465046FFF7F2FD26
:10432000E0721EB149465046FFF753FEA0780AE6F8
:104330002DE9F0470F461446814601EBC70140685E
:1043400001EB8711FB2202EB81010025465CA0787E
:1043500098424ED92088022101EBC301084482B261
:10436000501C1FFA80F839464846FFF7CBFDA08065
:1043700008F1010085B2424639464846FFF7C2FDC2
:10438000A1882A4601EB0020A080681C1FFA80F853
:1043900039464846FFF7B6FDE0804246501C85B2DC
:1043A00039464846FFF7AEFDE1882A4601EB00207A
:1043B000E080681C1FFA80F839464846FFF7A2FDE6
:1043C00020724246501C85B239464846FFF79AFD96
:1043D0006072681C1FFA80F82A4639464846FFF783
:1043E00091FDA072424639464846FFF78BFDE072C8
:1043F00001251EB139464846FFF7EBFD2846A2E5E8
:104400002DE9FF5F144600984FF000094F464168C0
:10441000019800EBC00202EB8010FB2202EB80004F
:1044200011F800A0A4F80490A4F80290A4F8089051
:10443000484604EB4001401C80B2A1F8067C0828E5
:10444000F7D3012B00D90123DDE9000103F132028A
:10445000FFF7EDFD0204120C22807CD0501C86B2C6
:10446000DDE90001FFF74EFD8046701C85B2DDE9F5
:1044700000013246FFF746FD08EB00206080012670
:10448000BB46A0882A46401CA080DDE900016D1CC7
:10449000AFB2FFF737FDA1883A4604EB4101C8806F
:1044A000781C85B2DDE90001FFF72CFDA188761CA0
:1044B00004EB4101CA8802EB0020C880A188681C77
:1044C00004EB410187B2A1F806B8DDE900012A46F4
:1044D000FFF718FD8046DDE900013A467D1CFFF735
:1044E00011FDA1882D1D04EB4101B61CA1F80604A5
:1044F000ADB2B6B2082834D2012714E06D1DDDE953
:104500000001361DAAB2B6B2551CFFF7FBFCA1880C
:10451000AD1C04EB41017F1CB1F80628ADB210447C
:10452000A1F80608BFB24745E8D9A08804EB4000CF
:10453000B0F80614B0F8060804EB4101B1F8062CF7
:104540001044A1F8060CA08804EB4000B0F806184F
:1045500001EB090000E013E0761C1FFA80F9B6B207
:1045600006E006EB880005EBC801401C8DB286B260
:10457000A088B0F5FF7F00D966886088B04280D8F7
:10458000BAF1000F03D0DDE90001FFF722FD04B00E
:104590004846BDE8F09F2DE9FF4F044680680E466F
:1045A00087B000689046B04203DA00200BB0BDE847
:1045B000F08FFCF74AFC814606EBC60101EB86173B
:1045C0006068042101EB8701405A4FF0000A4FF464
:1045D000FA6B059096B303A9CDE9001BADF80CA0CA
:1045E000ADF810A006234FF4987220680599FDF7E6
:1045F00011FABDF80C00ADF8080061680222BDF8A0
:10460000100002EB87028852BDF8080000F00F0589
:10461000454503D04FF47A70FCF73AFC454506D087
:10462000FCF713FCA0EB09010A988142D2D3616820
:10463000BDF8080021F827002846B7E7FFE702A9E0
:10464000CDE9001BADF808A002234FF498720021B9
:104650002068FDF70EF9BDF80800ADF80800D3E7B3
:10466000401CC0B2072800D90120704740F2CE514B
:1046700004F090BF2DE9FE4F15460C460746FCF7A7
:10468000E4FB064604EBC401786801EB84110422C4
:1046900002EB810130F801A04FF000084FF4FA69F5
:1046A00040F6050B02A9CDE900198DF80880012319
:1046B0005A4651463868FDF7ADF904469DF80800A2
:1046C0008DF80800000704D5C82D02DDC820FCF7CE
:1046D000DFFB002C03DD9DF8080000070AD5FCF77E
:1046E000B4FB801BA842DDD3002C05DD9DF808003B
:1046F000000701D4012003E4002097E42DE9FC47E2
:104700009146044601EBC102406802EB8115042288
:1047100002EB850230F80280C02202EB8502865A45
:104720000027701E40F2CD52904213D81A46204600
:10473000FFF7A0FF70B16068C22101EB8501425A0A
:1047400041F27071CDE90091334641462068FDF792
:10475000D2F907463846BDE8FC872DE9F04F894677
:104760001646044609EBC90241688DB002EB891078
:104770000422039002EB8000085A09900398C42297
:1047800002EB8000085A0790002740F2CD51401EEE
:104790001D4688424ED8FCF758FB8246BB464FF474
:1047A000FA6802A9CDE90018ADF808B0022340F676
:1047B0000D0220680999FDF72DF90746BDF808009C
:1047C000ADF80800000704D4C82D02DDC820FCF7AE
:1047D0005FFB002F03DDBDF8080000070BD4FCF7DA
:1047E00034FBA0EB0A00A842DBD3002F7EDDBDF82E
:1047F000080000077AD561680398C62202EB8000A2
:10480000085A0B960890FCF720FB0C904FF4FA68BE
:10481000CDE90068DDE908212068079BFDF7FAF87B
:10482000071E4CDD0B984079010704D000F00F0003
:10483000032816D0AEE03389CDF810B0ADF810B033
:10484000CDF80CB0CDF814B08DF812B00921204687
:10485000CDF818B0ADF80E908DF81310ADF81430F7
:1048600028E0F1884FF0010EBEEB113F7ED1B6F883
:1048700008A0B27A96F80B80B789B6F80EC0CDF8CA
:1048800010B0CDF814B0CDF818B0ADF810B0ADF848
:1048900014A0CDF80CB08DF812B08DF81620ADF83C
:1048A00018702046ADF80E908DF813E08DF8178043
:1048B000ADF81AC003A9FFF77FF9002761E002A94C
:1048C000BDF80800CDE9001880F40070ADF80800CC
:1048D000022340F60D0220680999FDF70CF9BDF896
:1048E0000800ADF80800FCF7B0FA00E051E082469D
:1048F0000AA9CDE90018012340F60F0220680999A2
:10490000FDF788F800280ADD9DF82800BDF808208A
:1049100000F00201022000EA1220814205D0FCF7DB
:1049200094FAA0EB0A00A842E2D3FCF78EFA824682
:104930004FF4FA6102A8CDE90001022340F60D020E
:1049400020680999FDF766F88046BDF80800ADF8C3
:104950000800000704D4C82D02DDC820FCF798FA2F
:10496000B8F1000F05DDBDF8080000E010E0000719
:1049700005D4FCF76AFAA0EB0A00A842D8D3002FAE
:1049800008DCFCF762FA0C99401AA842FFF43EAF2B
:1049900000E0002738460DB009E62DE9F0411E463B
:1049A00017460C460546FFF769FA04EBC40101EB14
:1049B00084110422686802EB81013346415A3A4669
:1049C0002846FFF7D0F9BDE8F0812DE9FF4F85B00B
:1049D0004FF0000A0646554602AA129B0699FFF7B9
:1049E0008FF9002862D0BDF80800D34610F4F04FCC
:1049F0000DD041F2707102A8CDE90001ADF808B008
:104A0000022340F2025230680699FDF774F84FF421
:104A1000FA6700240DF120084FF4A169CDE9008761
:104A200002234A4630680699FDF765F8002803DC42
:104A30002046641C0328F1DB40F20120ADF80C0095
:104A40000798ADF80E00D846ADF810B000240DF16F
:104A50000C09CDE90097062340F20252306806990E
:104A6000FDF749F8002804DC2146641C0329F0DB2B
:104A7000C8B14FF4C870FCF70BFAADF8088002AA71
:104A80003046129B0699FFF73BF960B1BDF808006C
:104A9000800405D54FF47A706D1CFCF7F9F902E03B
:104AA00000254FF0010A681E0228B2D3504609B013
:104AB0007DE52DE9F8431F4690460C460546089EC5
:104AC000FFF7DCF904EBC40101EB841104226868F0
:104AD00002EB81013B46415A424628460096FFF7C9
:104AE00074FFBDE8F8832DE9FF4F002583B0984699
:104AF000144681462E46FCF7A8F90746AA464FF40D
:104B0000FA6B6D1C012D02D0C820FCF7C1F9A4F886
:104B100000A0CDE9004B022340F20252D9F8000078
:104B20000499FCF7D7FE011E2088208001DD0004D7
:104B300007D5FCF78AF9C11B4145E2D32088000460
:104B400000D40126304607B031E52DE9FF4F89B08A
:104B500000260796CDE9026693460546344604AA28
:104B60000C9B0A99FFF7BFFF002875D0BDF8100015
:104B700040F2025710F4F04F0CD041F2707104A8CB
:104B8000CDE90001ADF8104002233A4628680A99A1
:104B9000FCF77EFF4FF4FA674FF4A16A4FF4807080
:104BA0004FF00008ADF81400ADF816B0ADF818805D
:104BB00044460DF11409CDE90097062340F2025254
:104BC00028680A99FCF764FF002804DC2146641C6D
:104BD0000329F0DB48B3C820FCF75AF9ADF8108080
:104BE00004AA28460C9B0A99FFF77DFFE8B1BDF89F
:104BF0001000810405D54FF47A70761CFCF748F953
:104C000027E000264006344610D50DF10808CDE90E
:104C100000870823524628680A99FCF75BFE0028A3
:104C200017DC2046641C0328F1DB12E00DF11C099F
:104C3000CDE900970423524628680A99FCF74AFEFA
:104C4000002803DC2046641C0328F1DB0799CDE92A
:104C50000218701E0228A1D3DDE902019BE62DE9AE
:104C6000FF4F85B04FF0000A0646554602AA129B38
:104C70000699FFF738FF002862D0BDF80800D34638
:104C800010F4F04F0DD041F2707102A8CDE900018F
:104C9000ADF808B0022340F2025230680699FCF7E2
:104CA000F7FE4FF4FA6700240DF120084FF4A169D4
:104CB000CDE9008702234A4630680699FCF7E8FEF2
:104CC000002803DC2046641C0328F1DB40F20120AD
:104CD000ADF80C000798ADF80E00D846ADF810B04E
:104CE00000240DF10C09CDE90097062340F2025291
:104CF00030680699FCF7CCFE002804DC2146641CD1
:104D00000329F0DBC8B14FF4C870FCF7C1F8ADF867
:104D1000088002AA3046129B0699FFF7E4FE60B1B4
:104D2000BDF80800800405D54FF47A706D1CFCF7BF
:104D3000AFF802E000254FF0010A681E0228B2D346
:104D40005046B4E630B5856A2C78102C11D22C442C
:104D50001425A170816A0C7805EB84040A51816ADC
:104D600054240A7804EB42028B52806A0178491C71
:104D7000017030BD2DE9F04385B090460E460546E2
:104D80000024FFF77BF806EBC601686801EB86118B
:104D9000042202EB8101405A44F620638146014619
:104DA00004AA2846FEF7ACFF00282ED0BDF810005C
:104DB000264610F4F04F40F202570CD041F27071C9
:104DC00004A8CDE90001ADF8106002233A46494637
:104DD0002868FCF790FE4FF48070ADF80800ADF83D
:104DE0000A80ADF80C60B84602AE4FF4FA67CDE920
:104DF00000670623424649462868FCF77CFE0028E7
:104E000003DC2046641C0328F1DB05B0BDE8F08319
:104E10002DE9FF4701EBC10303EB81110546042394
:104E2000406803EB8101002430F8018013460294AE
:104E3000ADF80C4003AA41462846FEF761FF90B149
:104E40004FF4FA6602AF4FF4A169CDE9007604236E
:104E50004A4641462868FCF7DDFD002803DC204671
:104E6000641C0328F1DB029804B0BDE8F087FF481A
:104E700010B50078012802D0022804D007E0FC48D1
:104E8000FEF709FF03E0FB49F948FEF708FF0020A1
:104E900010BD13460A460146F548FFF77CBB2DE9D5
:104EA000F04FD0F80090C7B01D4690460E464846D9
:104EB00000F0F4FFC0B24590B8F800204FF0060AA9
:104EC0004FF4987BCDE9002BCDE902A5459800244D
:104ED00040F2F72110FB01F009EB4001469046F249
:104EE0006C500F18042239464846459BFCF72EFCAF
:104EF0000C200DF1140BA6F1010A059016E04FF4F9
:104F0000987238F8143004EB4400029205EB40002C
:104F10000621CDE903100120CDE900033946042222
:104F20004846459BFCF73DFC4BF82400641C544567
:104F3000E5DBB44215DA04EB440005EB4000062241
:104F400038F81410CDE903204FF4987300208DE851
:104F50000B00394604224846459BFCF722FC4BF8DF
:104F600024004846509A459901F0B2F9040018D43B
:104F70000022469818215F4601EB40030FE057F8E6
:104F8000221001EB0900184402EB420105EB41013C
:104F9000D0F800C0C1F800C080888880521CB2429E
:104FA000EDDB00224846459900F0A6FF47B02046B9
:104FB000BDE8F08F2DE9F04FADF5037D00260446E6
:104FC000ADF808624FF4FA6182A8CDE900013546D8
:104FD00002234FF4987231462068FCF74AFCA1681E
:104FE0000968814200DC0126BDF80802ADF808021C
:104FF00000F00F07C00603D460680121458000E07F
:105000000021092F0AD2DFE807F009050505050987
:105010000909050062680120178000E000204FF0B8
:10502000020BB1B1A8B1A6B101205A460CE000EBC9
:10503000C001636801EB801102EB81069D53636838
:10504000401C80B223F82170A16809688142EEDA21
:105050006DE061680020FF27488001250DF10809F7
:105060004FF0040AA068008886B2701B402802DB5B
:1050700005F13F0086B228464FF0000862AA19E009
:10508000CDF80080CDF8048000EBC001636801EB2F
:10509000801C0AEB8C015B5A411B401C22F811302A
:1050A00001EB410309EB430180B2C1F80080BDF878
:1050B00004308B80B042E3D941F27070711B0090D4
:1050C00002AB62AA2046491CFFF7E9FE284624E00D
:1050D000421B02EB420200EBC00139F81280636808
:1050E00009EB420201EB8011ADF8088292880BEBCC
:1050F000810C23F80C20BDF8083203F00F02BA42ED
:1051000000D21746626822F82130616831F80C201D
:105110004B881A43401C4A8080B2B042D8D9701CD8
:1051200085B2A0680068B0429CDC606807803846A1
:105130000DF5037D3CE74E483CE72DE9F74F82B083
:105140000025ADF800500446026901EB810000EB38
:105150004111142000EBC100A846105C08B14FF0CB
:105160000108204600F055FA07464FF0240B65E091
:10517000A16AB81C049A095C20688A4601F096F876
:105180005FEA000951D440F2F7221AFB02F61A2115
:10519000206801EB4601415C0A2904D00C2902D0A9
:1051A0000B2926D041E0B8F1000F12D00BEB4605D9
:1051B00041191420A26A00EB87001058628E04F097
:1051C000D0F9618E2068014429440D88ADF8005063
:1051D0001BE0A36A542101EB47015A5A0BEB46012D
:1051E0000144142000EB8700185804F0BAF94D442C
:1051F0001BE0B8F1000F16D0618E42180BEB460190
:1052000011440988ADF800104D00218E4FF00008C0
:105210000144182000EB4600084401684268606BB6
:10522000C0E9001201E005EB490500225146206863
:1052300000F062FE204600F0ECF90746002F97DAF6
:10524000284605B0B4E63EB509C841F270754FF482
:105250009072A1B101EBC10404EB8114042101EBB4
:105260008401595A009533F8243005E036000020B7
:1052700054000020D8040120FCF765FC3EBD1988CD
:10528000ADF8081002A9CDE9001502230021FCF7B2
:10529000C6FA3EBD0146E548D5E72DE9F04F8DB091
:1052A000002701EB81020446099702EB41150069D2
:1052B000142202EBC502B946825C02B10127042226
:1052C00002EBC502089286580C2202EBC50350F887
:1052D0003580C25832445FEA020B7CD021B9A26A01
:1052E00000201070A26A5070012009901A222069D3
:1052F00002EBC50201EB810C865C0CEB41114FF017
:10530000080C0CEBC10CCDF828C04FF0160C102285
:105310000CEBC10CCDF81CC002EBC1024FF01C0C11
:105320000CEBC1010691002E7ED0C358002B7CD01F
:105330001E2101EBC5010C91465A089950F802B0A4
:105340009A46415801EB080920690C99415AB1422B
:105350000BD1282100EBC50201EB86015158202218
:1053600002EBC502805A081A05E000EBC5012820AF
:1053700000EB86000858761C8046B6B2206800F024
:105380008DFDC1B205911FFA88F0CDE903B01FFA77
:1053900089F14FEA19420091CDE901202068059971
:1053A00040F2F72211FB02F246F26C5101EB42018E
:1053B0000B9101440A22059BFCF7C8F917B3049826
:1053C0006086276907980822385A4FF41163616B89
:1053D00000EBC00700E0A2E007EB8017042000EB21
:1053E00087006768385ACDE9010300200090CDE9B5
:1053F000032120680B990E220144059BFCF7D1F98B
:10540000208600272068059900F0AEFD1FFA88F37A
:105410005A4620460599FFF795FCAAEB08005FEA7B
:10542000000AC144C34401E07AE005E004D02169E8
:105430000698085AB04287D820690899415800292F
:105440006DD00A9A50F835A0884650F802B04FF057
:1054500000092069282100EBC50201EB89001658DC
:1054600009F101001FFA80F9B8EB060000D54646A5
:10547000206800F013FDC1B20591B0B2CDE903B0D0
:105480001FFA8AF14FEA1A420091CDE90120206803
:10549000059940F2F72211FB02F246F26C5101EB42
:1054A0004201089101440B22059BFCF74FF907B319
:1054B00004986086276907984FF41163385A616B26
:1054C00000EBC00707EB8017042000EB870067683C
:1054D0000822385ACDE9010300200090CDE90321CC
:1054E000206808990E220144059BFCF75AF9208692
:1054F00000272068059900F037FDB3B25A462046D0
:105500000599FFF71FFCA8EB06005FEA0008B2440C
:10551000B3446FD021690698095A494599D869E082
:105520000899415811B10A99405800E080588246C4
:10553000206900EBC502282000EB8900165809F10C
:1055400001001FFA80F9206800F0A8FCC1B20591A3
:10555000B0B2CDE903A01FFA88F24FEA18410092D9
:10556000CDE901102068059940F2F72211FB02F203
:1055700046F26C5101EB4201089101440C22059B5B
:10558000FCF7E4F807B304986086276907984FF49E
:105590001163385A616B00EBC00707EB80170420DA
:1055A00000EB870067680822385ACDE90103002024
:1055B0000090CDE90321206808990E220144059B43
:1055C000FCF7EFF8208600272068059900F0CCFC56
:1055D000B3B2524620460599FFF7B4FBABEB060089
:1055E0005FEA000BB044B24404D021690698095A1E
:1055F00049459DD809980DB0DAE401460B484CE6C0
:105600000A460146094898E50020F6E701460020D1
:10561000F6E701464FF0FF308A6A517813789942D5
:1056200002D20846491C5170704700005400002007
:105630002DE9F04F924601EBC102044602EB8111C5
:105640004068042202EB810189B030F801B00027E4
:105650008DF818704FF4FA680DF11809CDE900982B
:105660001D46129E012340F6811259462068FCF720
:1056700042FABAF1000F02D003208DF8180007A9F2
:10568000CDE900188DF81C7001234FF418625946BB
:105690002068FCF730FA02A90020CDE90018CDE916
:1056A000020008234FF4116259462068FCF7B2F952
:1056B000DDE90210A5B1FB4A002311EB020C40F119
:1056C00000012A46604603F01BFFA0FB052301FBF7
:1056D000053100FB0710A9197F415118784105E0F9
:1056E0008919F04A7841891840F10000CDE9041089
:1056F00004A8CDE90008464608234FF4196259462C
:105700002068FCF7F8F908A8CDE9000608950423FD
:105710004FF41A6259462068FCF7EDF9CDE900967E
:10572000012340F6811259462068FCF7E4F909B0DC
:10573000BDE8F08F2DE9FF4F8BB001EBC102DDE931
:105740001898044602EB8111406804221E4602EBC1
:105750008101B9FBF6F5405A4FF4FA6A0DF10C0BD2
:10576000CDE900BA002702906D1C8DF80C707543CE
:10577000012340F6811220680299FCF7BCF90D98CC
:1057800010B107208DF80C0009A9CDE9001A8DF899
:10579000247001234FF4186220680299FCF7ABF9DA
:1057A0000020CDE9040004A9CDE9001A08234FF434
:1057B000116220680299FCF72DF9DDE90410AEB101
:1057C000B84A002311EB020C40F100012A46604662
:1057D00003F096FEA0FB052301FB053100FB07103B
:1057E00015EB08017F415118784106E011EB0801E3
:1057F000AC4A7841891840F10000CDE9061006A8AE
:10580000CDE9000A554608234FF419622068029931
:10581000FCF771F9089608AECDE9006504234FF452
:105820001A6220680299FCF766F9CDE90065CDF8A7
:105830002090042340F6A41220680299FCF75BF93B
:10584000CDE900B5012340F6811220680299FCF7EA
:1058500052F90FB06CE701EBC10303EB81113AB1D0
:10586000012A08D0022A09D0032A0AD00020704752
:105870004068D42207E04068D82204E04068DC2277
:1058800001E04068E02202EB81014058704710B50A
:10589000034601EBC10404EB81115B684FF0CE04B9
:1058A00004EB8101101E595C08D0012A12D0022A93
:1058B00019D0032805D1CA0710D11BE04A0701D52A
:1058C000022010BD8A0701D5012010BD0907FCD5B3
:1058D000032010BD0A07FBD4CA0701D0002010BD69
:1058E0004907EDD410BD8A07EED40A07F0D4C907E2
:1058F000F4D110BD4A07E3D48907E5D410BD10B533
:1059000002460020536801EBC10202EB8112CF2155
:1059100001EB8202995C0C0703D5032001F0F7012B
:105920000FE08C0703D5012001F0FD0109E04C07D1
:1059300003D5022001F0FB0103E0CC0701D001F008
:10594000FE01995410BD2DE9F04F8FB004460020A0
:1059500008900C90616804234FF4106281F8CB002A
:105960002169087506904FF4FA6106A8CDE9000197
:1059700000212068FBF753FF0120E4E100EBC002A7
:1059800002EB8815CE20616800EB85000D900A5C63
:10599000CF2000EB850901F80920CB21606801EBDD
:1059A0008501415C00297FD090F8CB1000297CD084
:1059B0000C9901EBC10303EB8113E82101EB830197
:1059C00020F801806268EA210C9801EB85015052B1
:1059D0000020CDF8308008906068042101EB85013B
:1059E000405A4FF4FA670DF1180ACDE900A7079065
:1059F00004234FF4106220680799FCF70BF8D420B9
:105A0000626800EB8506069991510DF1280BCDE9EE
:105A100000B7082340F6181220680799FBF7FAFF31
:105A2000DDE90A210020524260EB0100CDE90A20A5
:105A3000CDE900B708234FF4126220680799FCF7FC
:105A40005AF8CDE900A7042340F60412206807990C
:105A5000FBF7E0FFD820626800EB850B069942F85F
:105A60000B10CDE900A7042340F60812206807991F
:105A7000FBF7D0FFDC20626800EB850006990E90F2
:105A80001150CDE900A7042340F60C1220680799B5
:105A9000FBF7C0FFE020616800EB8500069B0B5020
:105AA000002003E000E1F50516E180E062680D9951
:105AB000515CCF0704D08DF824009059029001204A
:105AC0000E0706D509AE0327375402AE46F820303C
:105AD000401C8B0708D509AE0123335402AB52F8A2
